:020000040800F2
:10000000C016002081300008A7300008A930000881
:1000100000000000000000000000000000000000E0
:10002000000000000000000000000000AB300008ED
:100030000000000000000000AD300008AF300008F4
:10004000B1300008B1300008B1300008B13000080C
:10005000B1300008B1300008B1300008B1300008FC
:10006000B1300008B1300008B1300008B1300008EC
:10007000B1300008B1300008B1300008B1300008DC
:10008000B13000080000000000000000B13000089E
:10009000000000006D140008B1300008B130000805
:1000A00000000000B1300008B1300008B130000895
:1000B0004512000800000000CD0E0008B130000815
:1000C0000548854603F06CFA03F056F900480047EE
:1000D0004B01000803F00AFAC016002070B5044670
:1000E000002500F083F8122100F0ADF8344E00280E
:1000F00013D00A2C13D02146306801F0F6F80D2CED
:100100000DD100F073F8182100F09DF8002813D0ED
:100110000A21306801F0E9F80EE00D2C0CD003F054
:10012000A3F800683E21005D084203D021467068B4
:1001300000F0F8F8284670BD0125FBE7014610B530
:100140001F48006801F0D9F810BD02F0EFFF01F080
:100150009BF9002001F044F9012001F041F901F080
:1001600077F800F0F0FE01F039FA00F061FE00F0DF
:1001700006F810B500F02EF91149486010BD01F0E5
:1001800008F80F4CE1214902206001F085F80325B1
:1001900020682D020B494019C16101F0F1F800F00F
:1001A000C4FD20684019017E002907D00021017696
:1001B000606800F050FD606800F0F2F830BFF0E7D2
:1001C00000000020DD00000810B500210A4606C02E
:1001D000092308225049583003F0C6FA0446603C0F
:1001E0002C212C3803F063F8204610BD10B54B4885
:1001F0000078C0070AD1494803F0C7FA002805D0A3
:100200004748FFF7E1FF4548C046C046444810BD97
:1002100070B50446292914D2402911DC1546002363
:100220000A460120194603F00FF8002D03D00CCC2C
:1002300002430B4302E00CCC82438B43083C0CC4CA
:1002400070BD00BE70BD70B5292910D240290CDCEC
:1002500030C800230A460120194602F0F5FF044089
:100260000D402C4301D0012070BD002070BD00BEA8
:10027000FBE70B46643B0B2B05D28900FF39913914
:1002800008184263704700BE70470A46643A0B2A5A
:1002900005D28900FF3991390818406B704700BEBC
:1002A0000020704710B514467D22D2008B1A092B0E
:1002B00007D2D900081808222146603002F0DEFF7C
:1002C00010BD00BE10BD7D22D200891A092903D2BB
:1002D000C90008186030704700BE0020704770B534
:1002E0000146083103463133002201E00A70491CFF
:1002F0009942FBD1014634310446603400E004C128
:10030000A142FCD10546A83503E0204603F0B9F927
:100310000834AC42F9D170BD9136000808000020C5
:10032000C0000020F8B50446202936D0002934D07A
:10033000084602F09DFFC5B2E07B00280AD002F01B
:1003400093FF0068405D810041408020014201D060
:10035000012000E00020E073A0880E2803D2294687
:10036000204602F009FEA089FF2816D2E07B002873
:1003700014D0A07B002811D0002669460096087092
:100380004D7010223146684602F0BAFF0146A0893E
:10039000A368421CA2811954A673F8BDA573F8BDC9
:1003A00010B5044602F0FBFD0020A081A0730120DF
:1003B000E07310BD10B50E2102F035FD044600209B
:1003C000A081A0730120E073FF2003F08EF9A060EC
:1003D000204610BD10B50A480078C0070ED1084865
:1003E00003F0D3F9002809D00648FFF7E3FF064AD7
:1003F000064902F0D1FF0248C046C046014810BD80
:100400000C00002068010020000000084F360008A2
:1004100038B50D460090002A64D0FFF7E7FE212191
:10042000FFF711FF04466846C078000902F0B2FCED
:100430000146284602F0A0FD6846C0780007000F7C
:1004400002F0A8FC0146284602F096FD002C03D0DD
:100450002021284602F090FD68468078000902F0CD
:1004600099FC0146284602F087FD6846807800071F
:10047000000F02F08FFC0146284602F07DFD002CA3
:1004800003D02021284602F077FD68464078000915
:1004900002F080FC0146284602F06EFD6846407876
:1004A0000007000F02F076FC0146284602F064FDCA
:1004B000002C03D02021284602F05EFD684600781B
:1004C000000902F067FC0146284602F055FD684627
:1004D00000780007000F02F05DFC0146284602F09C
:1004E0004BFD38BD684640780007000F02F052FC13
:1004F0000146E0E710B5040010D05C487D21C9003A
:10050000006802F077FE01465948614341610021CD
:100510008161052101610169C903FCD510BD10B5D8
:10052000044652485349006802F064FE01466143A4
:100530004F48323941610021816105210161016922
:10054000C903FCD510BDF3B583B003988088C107FB
:1005500002D0002005B0F0BD0025C10F08182C46C0
:10056000471014E002232A466846039902F01CFD56
:1005700010220021684602F003FC0646684602F09D
:1005800085FC701CE6D004980655641CAD1CA7427F
:10059000E8DC3846DEE7F7B50F460546FFF726FEEE
:1005A0002121FFF750FE0646002417E0285D0009D0
:1005B00002F0F0FB0146029802F0DEFC285D000725
:1005C000000F02F0E7FB0146029802F0D5FC002E76
:1005D00003D02021029802F0CFFC641CBC42E5D37A
:1005E000FEBDF7B5002482B00746254626461EE02C
:1005F0003868805D58282BD02D090F202D01054328
:100600008443012332463946684602F0CDFC10226D
:100610000021684602F0B4FB0443684602F036FC51
:10062000B888401EB04201D92D012401761CB8883B
:10063000B042DDD880B203280FD008288AD1E80064
:10064000C008049900BA086020BA0399086081E7DD
:100650002D092D0124092401E2E76805400D0499C4
:1006600040BA086060BA80B2EFE700009000002056
:1006700000E000E040420F0010B50446FFF7B6FD71
:100680001821FFF7E0FD002801D0FEA100E0FEA147
:10069000204602F0A2FC2046FFF750FD10BD1CB51D
:1006A000044602F00FFE811C684602F0BCFB2146A6
:1006B000684602F0B0FC6846FFF7DEFF684602F0CD
:1006C000E5FB1CBD10B50C46FFF790FD012221464D
:1006D000FFF79EFDED48FFF7E2FF10BD10B50C4699
:1006E000FFF784FD00222146FFF792FDE748FFF760
:1006F000D6FF10BD70B50D461022002102F040FB60
:100700000446401C07D0FFF771FD22462946FFF73B
:10071000B0FDDE4801E0DD48801EFFF7C0FF70BD80
:100720001CB50C46684602F0B3FFFFF75FFD6A4652
:100730002146FFF7B7FDD548FFF7B1FF1CBD10B547
:100740000C4686B00146684602F088FB02A802F01B
:100750009FFF6846808803280BD16A46CCA104A875
:1007600002F075FC04A9684602F049FC04A802F0F6
:100770008DFB02A96846FFF7E6FE002800D00120A5
:1007800000280BD0694688884008C873FFF72EFD03
:1007900002AA2146FFF786FDBC4801E0BB48801E47
:1007A000FFF77DFF684602F071FB06B010BDB74849
:1007B00075E77047F0B585B00746684602F068FFF8
:1007C000FFF714FD0446B34DB888EE1C002809D08D
:1007D00003280DD008280BD0AC48801EFFF75FFF20
:1007E00005B0F0BD6A4629462046FFF75BFD13E0E1
:1007F00000200290039002AA03A93846FFF7F1FEF9
:1008000002206946C871039800906A46294620462E
:10081000FFF748FD029800906A4631462046FFF7F0
:1008200041FD02F051F902F030FA9848D6E7F8B5E8
:100830000746FFF7DBFC97490646891CFFF743FD97
:1008400094490546491C3046FFF73DFD04461022F9
:100850000021384602F094FA002804D0012804D080
:1008600002280FD113E0002206E0E879002809D021
:10087000E079002806D0012264213046FFF7F9FC18
:10088000824801E08148801EFFF709FFF8BDE0794A
:100890000028F7D00222EFE710B5FFF750FF02F073
:1008A00013F902F0F2F910BD78481930F7E67748ED
:1008B0000830F4E610B502F007F902F0DCF910BDDB
:1008C00010B500F051FD10BD7048C01CE7E610B532
:1008D00002F0FAF802F038F910BD10B502F0F4F8A1
:1008E00002F006F910BD10B502F0EEF802F004F9BE
:1008F00010BD10B502F0E8F802F0C5F910BD10B552
:1009000002F0E2F802F024F96048FFF7C8FE10BDDB
:100910003EB5614C00F0B7FA5E49D33148432146F9
:1009200002F068FC6421401D02F064FC04460846A5
:100930000A2102F05FFC0346224658A1684602F0F5
:10094000EDFE6846FFF7ABFE3EBD7CB502680024B5
:10095000137881882546412B01D1022902D0012933
:1009600013D022E0517842291FD0014602230122F0
:10097000684602F019FB10220021684602F000FAD6
:100980000546684602F082FA14E00146022300227E
:10099000684602F009FB10220021684602F0F0F9D7
:1009A0000546684602F072FA05E03EA102F045FBFA
:1009B000002814D00124FFF719FC22462421FFF758
:1009C00027FC02F081F80122294602F099F801285B
:1009D00008D0FFF70BFC00222421FFF719FC2B485D
:1009E000801E06E0FFF702FC2A466921FFF741FC62
:1009F0002648FFF754FE7CBD24480D304FE610B565
:100A000088B00446684602F043FE06A802F040FEA5
:100A100002230022214604A802F0C6FA0023DB4389
:100A20000222214602A802F0BFFA694604A8FFF795
:100A30008AFD002838D006A902A8FFF784FD002807
:100A400032D06946888A4008C871FFF7CFFB114948
:100A50006A46091DFFF726FC694688894008C87761
:100A6000FFF7C4FB0B4906AA491DFFF71BFC07480B
:100A7000FFF715FE02A802F009FA04A802F006FA30
:100A800008B010BD0D0A00000D000000063D000872
:100A900030000000E9030000530A000025642E2501
:100AA0003164560030300000D048E1E770B50D46A3
:100AB0000446CFA102F0C1FA002801D0012406E0CB
:100AC000CCA1204602F0B9FA002809D00524FFF78E
:100AD0008DFB22462946FFF7CCFBC448801C00E072
:100AE000C248FFF7DCFD70BD10B5FFF77FFB044681
:100AF00001F0EAFF0122002102F002F82046FFF790
:100B0000EEFB002214212046FFF782FB0122182170
:100B10002046FFF77DFB012212212046FFF778FBDC
:100B2000012221212046FFF773FB012224212046C8
:100B3000FFF76EFB002216212046FFF769FB00221B
:100B400009212046FFF764FB01220A212046FFF716
:100B50005FFB012208212046FFF75AFB3322682160
:100B60002046FFF786FB96226E212046FFF781FB89
:100B7000F12267212046FFF77CFBF1226721204606
:100B8000FFF777FB012266212046FFF772FB78E72B
:100B900010B5FFF7A9FF9548801CFFF780FD70E7AF
:100BA00010B5FFF7A1FF91480F30FFF778FD68E718
:100BB000F7B584B015000F4601D00B4601E00023C5
:100BC000DB43022202A8049902F0EEF9874C0B20C5
:100BD0004034C001261820E0207A002800D00120EF
:100BE000A84219D102A8216802F027FA002813D0E0
:100BF000002D1AD00023DB43BA1C6846049902F08A
:100C0000D3F968468088217A814202DC617A814288
:100C10000FDA684602F03AF91034B442DCD102A887
:100C200002F034F9002007B0F0BD73A1684602F06D
:100C300004F9E268002A0AD068466168904768466D
:100C400002F024F902A802F021F90120EBE768463E
:100C500002F01CF9E3E730B587B00446022168468C
:100C600002F0E1F8A08800284FD00223002221469C
:100C700002A802F099F902A9684602F0C0F902A898
:100C800002F004F9009800782B2810D05BA1684688
:100C900002F0D3F9002823D0254600220421204663
:100CA000FFF786FF0124002806D0204621E0684691
:100CB00002F0ECF807B030BD012204212846FFF70E
:100CC00077FF0028F1D1012203212846FFF770FFAA
:100CD0000028EAD1012202212846FFF769FF08E037
:100CE00047A1684602F0A9F9002805D0204600F087
:100CF00046F8002809D00BE0E07B002805D001F081
:100D0000E3FE214601F07BFF02E03848FFF7C7FC15
:100D100039A0FFF7C4FC3BA104A802F08EF8FFF74E
:100D20000DFA04A802F0B2F8C1E71CB532A168467A
:100D300002F083F81D21FFF733FF684602F0A6F8A2
:100D40002DA0FFF7ACFC2FA1684602F076F8FFF764
:100D5000F5F9684602F09AF81CBD1CB58188044676
:100D60006846891C02F05FF82146684602F036F9B1
:100D70006846FFF781FC684602F088F81CBD7CB528
:100D8000054621A102F059F9002826D121A12846C3
:100D900002F053F9002820D121A1284602F04DF994
:100DA00000281AD1AA8800240A2A0ED1072300227B
:100DB0002946684602F0F8F801241BA1684602F0B3
:100DC0003CF9002801D0012500E00025002C02D0CC
:100DD000684602F05BF8002D05D00448801CFFF740
:100DE0005EFC01207CBD00207CBD0000043D0008AD
:100DF00031000000350000000000000041540000F8
:100E0000535400003E0000005354435345475431AF
:100E10000000000053544353454752310000000086
:100E200053544346435043005354434643504100B8
:100E300010B5012088B0800700F08AFC012148022B
:100E400000F01CFD202006900320694608774877B3
:100E500000248C77CC771B4806A9006800F030FC92
:100E6000684600F0F0FE69460C7102940394049405
:100E7000154C204600F0D4FE07222021204600F029
:100E8000F3FE08B010BD70B50F4C204600F0F1FE27
:100E90000121204600F0DFFE204600F006FF04217D
:100EA000204600F00AFF0028F9D0204600F002FF9B
:100EB0000546204600F0F4FE0021204600F0CBFE5F
:100EC000284670BD100000200024014010B500F03D
:100ED000C5FB00F0E7FB9E4C2069142148439D4967
:100EE000421800219C4800F054FE216901208840EE
:100EF000A1680143A1602069092803D02069401C32
:100F0000206110BD0020FBE7944A1168FF231B04F9
:100F1000994311600121924A89071160704710B509
:100F20008B480079C0070CD18948001D02F02DFCC8
:100F3000002806D08648FFF7E7FF8548001DC04619
:100F4000C046834810BDFEB58648C16901225206DD
:100F50001143C16181690126314381618248016881
:100F60001022114301600924E40604220B212046CB
:100F700000F0DEFB04220C21204600F0D9FB00F03B
:100F8000D5F8754D284600F035FD684600F0AAFDFD
:100F900006206946088000248C700220C8700B224D
:100FA0000A7148718C71CE712846029400F02DFDB3
:100FB00001220221284600F028FEAC612868310495
:100FC00088432860FEBD10B586B00C4600F046FB95
:100FD00000F05EFB2068019000902079002800D08E
:100FE000042069460872002048726079887202A85D
:100FF0000822A11D033002F041F96946564800F06D
:1010000081FD042802D0012006B010BD0020FBE7BE
:1010100030B556480568012425430560C569A543D8
:10102000C561C5682543C560002B02D0C900091DF4
:1010300000E049054D4D40352960416949084900A6
:101040004161002B02D0D100091D00E0510569600B
:101050004168490849004160C1692143C161016893
:10106000490849000160012030BD394880680028E6
:1010700000D00120704770B5354C0846A1680029A2
:1010800034D0E16814225143324A89180A7A002A7E
:1010900001D04A6800E00A6802600A7A042A21D076
:1010A000002202718A7A42710822801D0B3102F0FF
:1010B000E5F8E0680125284E8540002202213046EF
:1010C00000F0A3FDA068A843A060012202213046E1
:1010D00000F09BFDE068092806D0E068401CE06055
:1010E000012070BD0122DCE70020F8E7002070BD80
:1010F00010B500290AD000220B21104600F078F923
:1011000001220C21002000F073F910BD00F00EF850
:1011100010BD10B50A460C21002000F08DF910BD5D
:1011200010B50B21002000F092F910BD1CB5032072
:10113000C002009002206946087103204871002017
:101140008871C8710920C00600F0BAFA1CBD000001
:101150001400002078010020006400401CE400E03E
:1011600000E100E000100240000001400066004085
:1011700010B5C324A4003221001901F054FE03214C
:10118000001B0022090241188A82CA820A76CA61BB
:1011900010BD10B56A480078C0070ED1684802F04B
:1011A000F4FA002809D06748FFF7E2FF664A67496A
:1011B00002F0F2F86248C046C046624810BD0146DF
:1011C00010B563488088032212028C18E169C0B20E
:1011D000002901D08847207610BD03460320000275
:1011E00010B51A185A48D18A948A2038A14208D2D8
:1011F000C069000604D5481CD082585C5449088157
:1012000010BD016A4022114301620022514900F0E1
:10121000D4FB10BD70B54E4C0546203CE06900077C
:1012200003D5206A082108432062E069400602D500
:101230002846FFF7D2FFE069800602D52846FFF76F
:10124000BEFF70BD10B5FFF7A4FFFFF7E3FF10BDB1
:101250001CB541484269012149040A434261C269FF
:101260000A43C2610C2000900220694608710320E5
:101270004871002088710924C871E406204600F0F6
:101280001FFA01220221204600F052FA0122032116
:10129000204600F04DFA1CBD10B586B0002000912C
:1012A0000190029003900590294C0C20203C049062
:1012B0006946204600F03CFB216801200143216083
:1012C00002462649204600F078FB206A4021084368
:1012D0002062234801688022090A09021143016043
:1012E00020495005086006B010BD19482038C26971
:1012F0001206FCD516480181704770B5144D06469C
:10130000203D28684006FCD4032000023418002247
:10131000E2828A88A2820968304601F0AFFFA08A83
:1013200000280BD001220B49284600F046FBE08A3A
:10133000411CE182315C3046FFF7D7FF70BD0000F1
:10134000280000204002002000000008613600084C
:10135000204400400601060000100240050105007F
:101360001CE400E000E100E01CB51C49684600F008
:1013700008F86846FFF7F1FC684601F087FD1CBDE0
:101380007047F3B581B0282101F04DFD07460025D7
:101390006E46A9000298032440580090305D000971
:1013A00001F0F8FC0146384601F0E6FD305D00072B
:1013B000000F01F0EFFC0146384601F0DDFD641E30
:1013C000ECD52D21384601F0D7FD6D1C042DE0DB56
:1013D000B9883846491E01F065FDFEBDACF7FF1F18
:1013E00020494B6901221130824013434B61704701
:1013F00070B580001C4B4C0018580323A340012AF1
:1014000006D0016899430160C1689943C16070BD0D
:1014100002689A430260066801252A46A2401643E4
:10142000066084888D40AC438480816899438160E4
:10143000816811438160E7E70123002A05D08B40D2
:10144000094980000858836170471031F7E7064A60
:1014500080001058008A01228A40104000D00120EC
:101460007047000000100240C44200085548018A3D
:10147000C90708D0018A4908490001825248C06959
:10148000002800D0004770475048C169022211432C
:10149000C161C16982151143C16181699202114321
:1014A0008161816952101143816170473EB50446E4
:1014B000880045496A462031085820604448019018
:1014C000414808210088401E108000201081518072
:1014D00090726946206800F0F1F920463EBD70B573
:1014E000394D0446287AC0070ED12846083002F04C
:1014F0004CF9002808D0284600210C30FFF7D6FF11
:1015000028460830C046C0462879C0070ED12E486C
:10151000001D02F03AF9002808D02B4801211030B4
:10152000FFF7C4FF2848001DC046C046002C03D06A
:10153000012C04D0002070BD23480C3070BD22481F
:10154000103070BD0268D1620268002151620268E9
:1015500011820068018801221143018070470068F0
:10156000008AC007C00F70473EB5174A04461848A6
:10157000D161019010886946401E088000200881D2
:10158000104D4880284600F099F9A88901210843A8
:10159000A88148050F49086020463EBD0948C16240
:1015A00000214162018201880122114301807047BC
:1015B00010B509487D21C900006801F01BFE0249F1
:1015C000088010BD004401402C00002000100240A3
:1015D000FFFF000000E100E09000002010B50122B4
:1015E00011460020FFF704FF002101220846FFF703
:1015F000FFFE002201211046FFF71EFF00221146C8
:101600001046FFF719FF2C490020C860886010BD04
:1016100010B5294CE068002808D0E068401EE06062
:1016200004D1002201211046FFF706FFA068002820
:1016300008D0A068401EA06004D1002211461046C8
:10164000FFF7FAFE10BD10B50446012002F052F873
:101650001A49FFF789FF2060204610BD10B51648D3
:101660000078C0070BD1144802F08FF8002806D08C
:101670001148001DFFF7E7FF0F48C046C0460E485F
:10168000001D10BD10B500680A21FFF787FF10BDCF
:1016900010B509490A208860002101220846FFF799
:1016A000CBFE10BD10B504490A20C86001221146C6
:1016B0000020FFF7C1FE10BD5800002011160008E1
:1016C000F0B50022032501230C6893401C409C4286
:1016D0002AD10C79012C01D0022C12D18768540038
:1016E0002E46A640B74387604E79A64084682643BD
:1016F000866084889C43848084888B7993401C43D3
:101700008480066853002C469C40A64306600E79F0
:1017100007689E403E430660C668A643C660CC7913
:101720009C40C3681C43C460521C102ACBD3F0BD3C
:101730004B07DB0E9A40C90810B589000818016AEA
:101740000F249C40A1430162016A1143016210BD54
:10175000534A516807231B02994301435160704764
:10176000F8B54F4E0446716800200C224D4D1140D3
:1017700005D0042903D0082903D00C2918D02560EE
:1017800018E07168706803228902D2030F0F1040BD
:10179000BF1C002809D0F06A0107090F2846491C20
:1017A00001F028FD7843206004E03F487843FAE7E1
:1017B0003E49216071683E4F0906090F7B5C216834
:1017C0000A46DA40626073685B055B0FFB5CDA40D7
:1017D000A260336BDB0501D4364B05E073685B0414
:1017E00001D4530800E09308E360336B5F06324B8B
:1017F00003D4314F1237276100E02361376BFF06B6
:1018000001D4656100E06161376BBF070ED0376BB3
:10181000BF07BF0F012F0BD0376BBF07BF0F022FC2
:1018200008D0376BFF43BF0706D006E0A26104E093
:10183000A16102E0A36100E0A561376BBF03BF0FA8
:101840000FD0326B9203920F012A0CD0316B8903B7
:10185000890F022909D0316B8903890F032906D02A
:1018600006E0E26104E0E16102E0E36100E0E561DD
:10187000316B090600D40D482062F8BD084A0029E2
:10188000916901D0014300E0814391617047044AAE
:101890000029116901D0014300E0814311617047C3
:1018A0000010024000127A0000093D00006CDC02CA
:1018B00068000020809FD5000080000010B50288DD
:1018C000144B984206D00124A407A04202D0124C27
:1018D000A04203D17024A2434C8822430F4CA04263
:1018E00003D00F4C22400C89224302804A68C26216
:1018F0000A880285984208D00A4A904205D00A4ACE
:10190000904202D0094A904201D1897A0186012190
:10191000818210BD002C01400004004000100040F6
:10192000FFFC00000040014000440140004801402D
:1019300030B50446006889B00D464008400020607C
:101940006068032109038843A96801436160206836
:101950002449EA680840696811432A69024311432F
:101960002160A06803210902884369690143A160DD
:101970006846FFF7F5FE1C48844201D1069805E051
:101980001A48844201D1079800E0029821680904AE
:10199000296800D5400001F02DFC2A6852088A42CF
:1019A00000D8401C2168090404D50107104A490FDA
:1019B00010400843A08109B030BD10B50B041C0EC7
:1019C00001238B40022C02D0032C02D002E0001D28
:1019D00000E008300168002A01D0194300E0994373
:1019E000016010BDF3E9FFFF0038014000440040F2
:1019F000F0FF000010B501214C062046FFF747FF1D
:101A000000212046FFF743FF10BD10B503680022F8
:101A10000224A343036003680124234303607F4B34
:101A200000E0521C4468E40701D19A42F9D14268AF
:101A3000D2073ED08C798022012C04683BD094439D
:101A40000460CC794022012C046836D094430460B1
:101A50000C7A2022012C046831D0944304604C7A23
:101A60001022012C04682CD0944304608C7A082244
:101A7000012C046827D094430460CC7A0422012C02
:101A8000046822D0944304608A78CC7892072406B4
:101A900022430C79240422434C79098824052243EB
:101AA000491E0A43C26101684908490001600021DA
:101AB0000EE0002010BD1443C2E71443C7E71443EF
:101AC000CCE71443D1E71443D6E71443DBE7491CC2
:101AD0004268D20701D09942F9D14068C007E8D1E5
:101AE000012010BD00218171C171017241728172AA
:101AF000C1728170C1700321017102214171012104
:101B00000180704730B50246936800205B0108D41D
:101B10009068000101D5012003E09068C0002ED537
:101B2000022003019A18FF3281321368DB07DB0FB2
:101B300013600B7A002B24D014684D681C434B7A39
:101B4000ED002B431C4314608B7A1B071B0F8B7219
:101B500053681B091B01536053688C7A23435360FD
:101B6000CB68CC7A1B02234393600B69C97B1B02B1
:101B70000B43D360116801231943116030BD042069
:101B800030BD13684C7A23430C88640523431360EB
:101B9000DAE70B0130B51B18FF3381331C6B0425CA
:101BA0002C4014721C6B29D0E40854601C6B022575
:101BB0002C4054725C6B2407240F94725C6B240AD3
:101BC000D4749C6BD4729C6B240A14739C6B240C8D
:101BD00054739C6B240E9473DC6BD473DC6B240AFB
:101BE0001474DC6B240C5474DB6B1B0E9374202276
:101BF000002906D001691143016130BD640D1460F4
:101C0000D4E7C1681143C16030BD002A426901D0E8
:101C10000A4300E08A43426170470000FFFFFF0073
:101C200030B5C2682C4B8C681A400B680D79234381
:101C3000CC686D032C4323430C69496923430B4350
:101C40001343C36030BD0021016001718160C16038
:101C50000161416170470029816801D0012200E0E3
:101C60000222114381607047836A0B4383624261A1
:101C70007047826800210123DB071A4382600F232B
:101C80001B038268491CD20FD207994201D0002A57
:101C9000F7D18168002901DB006C70470020704794
:101CA00081681022114381607047816804221143CA
:101CB00081607047006C80B2704702460020CB0103
:101CC00004D5926801231B069A4300E012680A4279
:101CD00000D001207047000003D2FFFF70B5054619
:101CE0001646084600F0F2FF044600683146436895
:101CF00020469847217C2974002801D0E168E960DA
:101D000070BD70B50D460446002020710421E160CD
:101D100020742A4602212046FFF7E0FF002804DC59
:101D20002A4603212046FFF7D9FF70BD04207047E3
:101D300010B508A0FEF7B3FC10BD10B580682421D3
:101D4000FEF781FA002801D004A000E004A0FEF70D
:101D5000A6FC10BD4155544F00000000413000006A
:101D60003000000010B50446FEF740FA206020461F
:101D700010BD70B50C460546164600681421FEF7E6
:101D800062FA00280ED0227931462068FEF740FB27
:101D900021212868FEF757FA002803D02021304679
:101DA00001F0EAF832460821A01DFEF7F4FB70BDF1
:101DB000FFB506460C460A79086881B01F461946E9
:101DC000FEF726FB21213068FEF73DFA0546092182
:101DD0003068FEF738FA0646002D03D02021384639
:101DE00001F0CAF8002E0BD060793030C1B238460D
:101DF00001F0C2F8002D03D02021384601F0BCF8D4
:101E00003A46A01D0399FEF7C6FB05B0F0BD10B51C
:101E10008818029C19462246801DFEF7BCFB10BDA7
:101E200070B50546002400681421FEF70CFA00285E
:101E300000D0012408212868FEF705FA002800D107
:101E40000224204670BDFEB50E460746322101A889
:101E500000F0E9FF7D21C9003868FEF734FAC07947
:101E6000002800D00120002801D0022400E0012435
:101E7000301945793846FFF7D3FF002804D00128F0
:101E80000BD0022815D10FE001A800902B46224666
:101E900031463846FFF7BBFF0BE02A1901AB31464C
:101EA0003846FFF785FF04E001AA31463846FFF7C0
:101EB00060FF01A8FEF7E0FB01A800F0E7FFFEBD10
:101EC00070B58C186079A1790007000D049D084356
:101ED0001E4600222946FEF79BFA2846FEF7CCFB59
:101EE00051A1284601F097F8E01D2A463146FEF739
:101EF00052FB70BDFEB50F460646322101A800F028
:101F000092FF7D21C9003068FEF7DDF9C079002815
:101F100000D00120002801D0022500E00125002882
:101F200001D0052400E006243046FFF779FF0028A1
:101F300004D001280BD0022815D10FE001A8009091
:101F400023462A4639463046FFF7BAFF0BE001AB7D
:101F5000082239463046FFF72BFF04E001AA394634
:101F60003046FFF706FF01A8FEF786FB01A800F048
:101F70008DFFFEBDF8B50698154602070E461F46B2
:101F8000120F2AA16846079C01F0C8FB694620464B
:101F900001F041F8701922463946801DFEF7FBFA20
:101FA000F8BDF7B584B007461646322102A800F006
:101FB0003AFF7D21C9003868FEF785F9C07900280D
:101FC00000D00120002801D0022500E001250028D2
:101FD00001D0062400E007243846FFF721FF00283F
:101FE00004D001280CD0022816D110E002A80096D7
:101FF000019023462A4638460599FFF7BBFF0BE0C0
:1020000002AB082238460599FFF7D2FE04E002AA87
:1020100038460599FFF7ADFE02A8FEF72DFB02A892
:1020200000F034FF07B0F0BD303A200025583A20C8
:1020300000000000F0B50646406887B0102801DCBB
:10204000002400E034680020049005202546214645
:10205000029008018019407B002804D00A200290D9
:102060000120049004E00F2920D0491CA942F0D19E
:1020700002983221C01C0390C01C0590684600F0F5
:10208000D2FE0021684600F00DFF20018719B868D4
:102090006946049AFEF7BCF920226846029900F0CE
:1020A0001EFF387B002803D0532102E00021DDE72A
:1020B0005221684600F060FF20226846039900F034
:1020C0000EFFB87B3030C1B2684600F055FF2022C9
:1020D0006846059900F003FF384610306A4608212B
:1020E000FEF759FA1BA1684600F077FF38460F301B
:1020F0006A460121FEF74FFA6846FEF7BDFA0F2C3B
:1021000007D0641CAC42BCD1684600F0BFFE07B0EB
:10211000F0BD0024F6E770B5044600681E46431C77
:102120002360000105190B68AB602A730879687396
:102130004879A873284610300822891D01F09EF8BE
:10214000EE732068102801DB002020606068401CCE
:10215000606070BD20202D3E2000000020304078BF
:10216000002800D001200818C1797F2902D1407AC7
:10217000782801D0002070470120704770B50546CF
:1021800080686C21FEF781F804466621A868FEF796
:102190007CF8002C02D04443A00070BD322070BDFA
:1021A000F3B587B004460025FFF7E8FF04906846C2
:1021B00000F006FE7D210027C900A068FEF783F825
:1021C000C079002801D0012100E000212046203004
:1021D0000690417000263046FFF781F9059004997A
:1021E000FFF7B0F96069FEF740FF002843D0694669
:1021F0006069FEF740FF6846837B00226946A0695C
:10220000FFF789FF69462046FFF7A8FF002801D0A5
:10221000642D04DD04990598FFF794F904E0FA4968
:102220000598FFF78FF96D1C08980127002822D028
:10223000069840780028684601D0C07900E080798F
:10224000000903D0012806D002280ED06946E069B3
:10225000FFF7F9FD0FE020686946026C20469047C1
:102260006946E069FFF746FE05E0761C324669469E
:10227000E069FFF796FE0598FFF771F90028B1D0E5
:10228000384609B0F0BDF0B5044600680F46C16B92
:102290008DB01D4616462046884701460020059011
:1022A00006900790049000900190029003902020E7
:1022B000025D2B4608A800F090FD09A83246394679
:1022C000023000F0DBFF0023012208A9A069FFF71C
:1022D00022FF08A96069FEF776FE002800D00120E1
:1022E0000DB0F0BDFFB585B01E4617460446FFF79A
:1022F00045FF0546684600F063FD0020FFF7EFF854
:1023000029460490FFF71EF9254620356069FEF73F
:10231000ACFE002817D069466069FEF7ACFE68463F
:10232000837B00226946A069FFF7F5FE68780028E4
:10233000684604D0C0790009032817D003E08079EB
:102340000009032806D00498FFF709F90028DDD01A
:10235000002096E76846807901070698090F01700A
:102360006846C07938706846007A0AE06846C079E5
:1023700001070698090F01706846007A38706846B0
:10238000407A307001207CE7F7B58CB000240C98BF
:10239000009401947D218068C900FDF794FF0890A6
:1023A0000C9808262030029040786946002803D017
:1023B0000898012400780870102008550E9B081911
:1023C00002781B051B0F1A430270641C0E980855F7
:1023D0000298641C4078002801D0052500E00625FD
:1023E00008192A460D9900F049FF33461A466946F6
:1023F0000C98FFF748FF00280CD004AB0AAA03A9E9
:102400000C98FFF76FFF002804D06846007B002877
:1024100002D000200FB0F0BD6846007C0790029803
:102420004078002801D0062000E0072006900E9892
:102430000699401B00F0F4FE0590002901D0401CD5
:1024400005902124002630E00E980699401B884212
:1024500000DD08460299C7B249780020002904D05F
:10246000089869460078087001206A461454401C98
:10247000C119C9B209910D99641CE4B249196844A3
:102480003A4600F0FBFE099B69461A460C98FFF796
:10249000FAFE0028BED0ED192F2C00D92024079871
:1024A000002801D0FEF726F8761C05988642CBDB83
:1024B0000120AFE7F7B5074684B0002000900190F7
:1024C00052481646824202DD002007B0F0BD0821C6
:1024D000B868FDF7B8FE02907D21C900B868FDF725
:1024E000F2FEC179002901D0B41C00E0741C029AEC
:1024F000002A00D1641E002900D001212122D155DB
:10250000082C25DCC1790025002903D00078694614
:10251000087001253868C16A384688470B2801D001
:10252000082000E02046C0B203900298002802D0A4
:10253000684646556D1C684640193246059900F0BC
:102540009DFEE2B269463846039BFFF79CFEBCE75E
:10255000324638460599FFF717FFB6E710B504462F
:10256000FFF7A8FF002807D001212046FFF718FE3B
:10257000002803D0072010BD032010BD042010BD8B
:10258000F3B5044600688DB0C16B2046884700252E
:1025900001460595022006950127079526460090DD
:1025A000049502952036019703953278082308A8F0
:1025B00000F013FCE76025742068C1692046884755
:1025C0000621A068FDF73FFE002801D027710EE02C
:1025D00008A96069FEF7F7FC00280DD020460E9987
:1025E000FFF7DEFD002807D027710E9820743078A1
:1025F00000280DD007200DE72068016A2046884793
:102600000420E060002005E788130000FF0F0000B1
:102610000620FFE670B50446002540690121FEF75B
:1026200067FD00216069FEF774FD6420FDF777FF08
:102630006069FEF775FD002803D0DCA0FEF72FF8D7
:10264000012501216069FEF764FD6420FDF767FF45
:102650006069FEF765FD012801D0DBA002E0002DD6
:1026600002D1E0A0FEF71BF800216069FEF740FDF3
:1026700070BD10B58069FFF7DDFC10BD70B500F0CE
:1026800019FB0446DC4826460025203620603570BC
:10269000FEF745FC6061FF20093001F02BF80028AF
:1026A00008D00560102345601A46D449083001F06F
:1026B0005BF80838A0610420E060757001F01AF83A
:1026C000002801D0FFF74EFBE061204670BD0121DC
:1026D00001710168C96A084770B504468068242101
:1026E000FDF7B1FD05462068C16A204688470B28E2
:1026F00003D0002D03D0C2A002E0C9A000E0CDA00D
:10270000FDF7CDFF70BD70B5044680682421FDF74C
:102710009AFD05462068C16A204688470B2803D0E9
:10272000002D03D0CAA002E0CAA000E0CAA0FDF7B5
:10273000B6FF70BD08B5002100918068C749FDF75C
:10274000C2FDC179002904D000F0ACFF4005400D66
:1027500000E0C348009008BD7CB500250446009504
:10276000FB2180688900FDF7AEFDC179002904D006
:1027700000F098FF4005400D01E0FF20C000B74980
:1027800001950090491FA068FDF79DFDC1790029C2
:1027900004D000F087FF4005400D01E0FD20C0009F
:1027A00001900146009A00236069FEF731FC7CBD70
:1027B000F3B504468DB080680A21FDF744FD00287A
:1027C00042D06421A068FDF760FDA4490646C91EF9
:1027D000A068FDF778FDA1490746091FA068FDF72D
:1027E00072FD05460020059030210690079000916B
:1027F000049001900290024603903F210823490172
:1028000008A800F0EAFA0E99089809784907490FD4
:1028100008430890012E18D0002E0BDD002D09D0A2
:1028200008AE0821B01D00F042FDEA792946B01D2E
:1028300000F024FD08A96069FEF7C5FB0023012212
:1028400008A9A069FFF767FCE4E5002FE6D0384649
:1028500000F028FF4005400D0890DFE710B58068C4
:102860006921FDF712FD10BD10B50168496B88475D
:10287000FEF7F4FEFEF706FF10BD012101710168AD
:10288000C96A084710B580682421FDF7DCFC0028E0
:1028900001D074A000E07BA0FDF701FF10BD10B5D2
:1028A00080682421FDF7CFFC002801D07CA000E047
:1028B0007CA0FDF7F4FE10BD38B505460020674941
:1028C0000090491EA868FDF7FEFCC179002903D0DD
:1028D0000078C406E40E00E018246049A868FDF7FB
:1028E000F2FCC179002906D000F0DCFE00906846B9
:1028F000C470009838BD6C48009038BD7CB5002588
:1029000004460095FB2180688900FDF7DCFCC17955
:10291000002904D000F0C6FEC000C00800E06348F3
:102920004E4901950090491FA068FDF7CCFCC17984
:10293000002904D000F0B6FEC000C00800E05C48EA
:1029400001900146009A01236069FEF761FB7CBD9E
:1029500030B58DB0002204460592069230200792D1
:102960000D460492019202920392009008230122E4
:10297000504908A800F031FA29780898090208435C
:10298000089008A96069FEF71EFB0023012208A930
:10299000A069FFF7C0FB0DB030BD10B50168496BF1
:1029A0008847FEF75BFEFEF76DFE10BD43414E20EB
:1029B000776972696E67206661696C6564205B3057
:1029C0002D3E315D0000000043414E207769726961
:1029D0006E67206661696C6564205B312D3E305DF9
:1029E0000000000043414E20776972696E672069DC
:1029F00073204F4B000000000844000871360008A7
:102A00004155544F2C2049534F2031353736352D01
:102A100034202843414E2031312F353030290000F9
:102A20005553455231202843414E2031312F353006
:102A30003029000049534F2031353736352D3420A9
:102A40002843414E2031312F35303029000000001D
:102A5000413600004200000036000000EE03000096
:102A6000DF0700004155544F2C2049534F2031358A
:102A70003736352D34202843414E2032392F35301A
:102A80003029000049534F2031353736352D342059
:102A90002843414E2032392F3530302900000000C4
:102AA0004137000037000000F133DB1800FFFF1F43
:102AB00000F1DA18F100DA1810B50446012000F030
:102AC00005F92060204610BD10B572480078C00797
:102AD0000BD1704800F059FE002806D06D48001D4B
:102AE000FFF7EAFF6B48C046C0466A48001D10BDAC
:102AF00000680168C96808470068016809690847F3
:102B000070B5056816460446002907D0062907D087
:102B1000072917D00B2903D0022070BD012000E047
:102B2000022000F0D3F82060002E09D0A84207D080
:102B30002868016A2846884720680168C96988476B
:102B4000012070BD0320ECE700680168496908476F
:102B500000680168096A0847002901D0FF2901DDE2
:102B60000020704701207047F8B50D4606464AA27E
:102B70008989FFF7F1FF002809D030680179002921
:102B800007D00368AA899B68A9689847F8BD032005
:102B9000F8BD2846114600F050FA0090012000F0E0
:102BA00095F80021017431680446A14214D0FDF764
:102BB0001DFB2421FDF747FB07003068016803D0A7
:102BC0004A680099904701E0096888470100306829
:102BD000C06809D1002FDBD02068009942682046E8
:102BE0009047011EE068D3D000223046FFF788FFEF
:102BF000207C002801D00720F8BD3068C1E700B56F
:102C000085B0FFF7B1FF0246030000F09BFD0C22E8
:102C10002207090C0F122215181B1E24204816E04B
:102C20001F48103013E01E48083010E01C48801C7C
:102C30000DE01B481B300AE01948363007E0184801
:102C40003F3004E01648493001E015482D30FDF7CB
:102C500026FD05B000BD13A1684600F05FFD694682
:102C600003A800F0EAF8FDF769FA03A800F00EF9EE
:102C70000B485530EBE710B5022000F027F801684B
:102C8000496A884710BD0120704700680168496B98
:102C9000084700007800002030313030000000008C
:102CA000D842000825582000002101710422C2608A
:102CB0000174704710B504462B482060FDF796FA62
:102CC000A0602046FFF7F0FF204610BD70B5274DED
:102CD0000446287AC00710D12846083000F055FD78
:102CE00000280AD02248FFF7E5FF224901600021B1
:102CF000017128460830C046C0462879C0070FD168
:102D00001A48001D00F041FD002809D01848143071
:102D1000FFF7B4FC184901601448001DC046C046C6
:102D20002878C00710D1114800F02FFD00280BD0E3
:102D30000F483830FFF7A2FC104901600121203014
:102D400001700A48C046C046012C05D0022C05D0AF
:102D5000032C06D0002070BD054870BD0448143017
:102D600070BD0348383070BDEC440008800000207E
:102D700060050020C843000854440008A04400082F
:102D800010B5002901D083880B600068002100F095
:102D9000B7FA10BD1FB506A11EC903946C460EC438
:102DA0000F2803D86946085C04B010BD0020FBE77B
:102DB0003031323334353637383941424344454671
:102DC00010B504460020206020716071A0730821B6
:102DD000A01D00F06CFA204610BDF0B5059F089EBE
:102DE000099D0B9C01600271437187710699C17145
:102DF00007990172467285720A99C17204730C991F
:102E00004173F0BD10B50446322900D83221491C67
:102E100088B2E08000F069FC20609848E188026890
:102E20008918016010BD10B50446FFF7EBFF21685B
:102E300000200870A080204610BD70B504460D46E5
:102E4000084600F03FFA81B2A1802046FFF7DAFF82
:102E50002946206800F04BFA204670BD70B50D463B
:102E6000898804468180FFF7CDFF2968206800F03B
:102E70003EFA204670BD0A680260CA88C2808A880D
:102E80008280002008608880C880704710B50446A2
:102E9000006800F022FC7948E1880268511A01605C
:102EA000204610BD82888A4204D989B28180006898
:102EB00000224254704770B50446C0880D46A842AF
:102EC0000CD2084600F011FC0646A288216800F0EA
:102ED000D5F9206800F001FC2660E58070BDF7B5EB
:102EE000044680880D4600278EB2A84203D9A680EA
:102EF00020688755FEBDA842FCD2691C2046FFF71A
:102F0000DAFFA0882168029A0B18291A184600F0E7
:102F1000C7F9ECE770B504460E46084600F0D2F952
:102F20000546A188401C09182046FFF7C4FFA18868
:102F300020684018314600F0DAF9A0884019A080D6
:102F4000204670BD70B50E4604468188501C091895
:102F500015462046FFF7AFFFA18820682A46401893
:102F6000314600F08BF9A088401980B2A080226819
:102F700000211154204670BD70B50D46818804466D
:102F8000891CFFF798FFA18820684554A08800217C
:102F9000401C80B22268A0801154204670BD0021E0
:102FA000818000680170704770B50E468988914233
:102FB00001D8002500E01546994201D24C1B00E0E3
:102FC0001C46611CFFF72FFF316822464919FFF7A5
:102FD000B9FF70BD8A880968B4E79BE770B50C46F5
:102FE00089880546491CFFF766FFA2882168521CA4
:102FF000286800F043F9A088A880284670BD70B505
:1030000004460D46006800F068FB29462046FFF79D
:1030100032FF204670BD70B504460E46084600F0EB
:1030200051F90546411C2046FFF745FF314620680F
:1030300000F05DF9A580204670BD10B5006800F075
:1030400048F9002801D0002010BD012010BD70B546
:10305000064614460D46084600F034F9A18841188A
:103060003046491CFFF7DFFE06462946FFF7B5FF4D
:1030700021463046FFF7AEFF70BD00008C000020F7
:103080000C4880F308880C480168090E0B4A9142ED
:1030900005D10B480B4901600B480C4901600C48F5
:1030A00080470C480047FEE7FEE7FEE7FEE7FEE745
:1030B000FEE70000C0160020040000001F00000012
:1030C0001810024001000000000001400000000054
:1030D000D9300008C100000810B53F48016801223E
:1030E0001143016041683D4A1140416001683C4A1A
:1030F000114001600168012292049143016041681E
:103100003F22120491434160C16A09090901C16269
:10311000016BFF22D43291430163416B490849009E
:1031200041630021816000F02FF810BDF8B52A4EF0
:1031300071680C2001402B482B4C03D0042901D08E
:1031400008290AD02060706827490006000F091D71
:10315000085C2168C1402160F8BD7168726803276E
:10316000FF033A4089020D0FF16A01230907090F95
:103170001B04491CAD1C9A4202D0BA4200D11B4824
:1031800000F038F86843DDE719491120086012485B
:10319000416841604168416041687F22D2039143A8
:1031A00041604168C200114341600168012212067A
:1031B0001143016001688901FCD5416889088900D3
:1031C0004160416802221143416041680907890F4B
:1031D0000229FAD170470000001002400CB8FF0825
:1031E000FFFFF6FE00127A0090000020006CDC0267
:1031F0000020024030B50B46014600202022012469
:1032000009E00D46D5409D4205D31D469540491B1A
:103210002546954040191546521E002DF1DC30BD63
:1032200070B500242546002801DA01244042002917
:1032300001DA01254942FFF7DDFFAC4200D04042F0
:10324000002C00D0494270BD10B5202A04DB014695
:10325000203A9140002010BD914020239C1A034643
:10326000E3401943904010BD00487047BC4300083C
:1032700001466139192900D82038704703460B43AD
:103280009B0703D009E008C9121F08C0042AFAD21C
:1032900003E00B780370401C491C521EF9D27047A2
:1032A000D2B201E00270401C491EFBD270470022DE
:1032B000F6E710B513460A4604461946FFF7F0FF35
:1032C000204610BD421C0178401C0029FBD1801A09
:1032D000704710B5002200E0521C835C8C5CA34256
:1032E00001D1002BF8D1D8B2E1B2401A10BD03468B
:1032F0000A780270401C491C002AF9D11846704710
:10330000F7B582B00F460026029C00F029FA009023
:10331000006801902578641C002D05D0FFF7A4FFFC
:103320000068405DC007F5D12B2D02D02D2D1CD09B
:10333000641E00980021016039462046049A00F07E
:1033400074F80146002F04D03868A04201D10298D9
:1033500038600098006802280BD00098019A02603B
:10336000700506D5484205B0F0BD01208002064335
:10337000DFE70846F7E7000070B5054C054D03E0B0
:10338000206800198047241DAC42F9D170BD0000AF
:10339000B0460008B8460008F8B5074615460E4680
:1033A000102000F079FC040009D06760A660E56099
:1033B00000F08EF80168216004600020F8BD012053
:1033C000F8BD10B500F0B3F810BDF0B51FB4064657
:1033D000002082B005464024019100901BE0019935
:1033E00022460F46304600F0EDF8049A059B801AFD
:1033F000994110D3104619462246FFF725FF361A89
:103400008F410197224601200021009FFFF71CFFFA
:1034100038184D4100902046641E0028DFDC019BD7
:1034200000982946324607B0F0BDF7B582B0029C3D
:1034300000272078641C15460197302802D0002D03
:1034400015D015E020780127641C782804D058286E
:1034500002D0002D09D00BE0002D01D0102D07D196
:10346000002710252078641C02E0082500E00A25CA
:103470000026009610E00099012769430818020C05
:10348000294680B2714300908E183804864201D3D9
:10349000012001902078641C294600F0A4F800283F
:1034A000E9DA0398002805D0002F01D0641E00E05F
:1034B000029C04600198002806D000F051F9022116
:1034C0000160C81E05B0F0BD009930040843F9E75B
:1034D00000487047A8000020034870470248001DBC
:1034E000011F8860001D7047AC000020F8B506463B
:1034F000FFF7EEFF0090054615E0002E02D0E068D1
:10350000B0420FD1206828600098A1680768606801
:103510008847204600F096FB00980068B84202D029
:103520000098E8E725462C68002CE6D1F8BD10B5D8
:1035300000F00FF80169002903D0002202618847DA
:1035400001E080688047C046C046000010B5C04614
:10355000C04670B5FFF7C2FF04680546002C15D1C0
:10356000202000F099FB040012D0002009492C60B3
:1035700003C4094921602071A060E060074920610F
:10358000083C002901D000F03EF8E061204670BD03
:10359000C046C046000000004D3500080000000095
:1035A000064C0125064E05E0E36807CC2B430C3C96
:1035B00098471034B442F7D3FCF786FD90460008D4
:1035C000B046000810B5202A04DB0846203AD04057
:1035D000002110BD0B46D340D0402024A21A9140B8
:1035E0000843194610BD3A2800D23038202302463D
:1035F0009A43412A01D310463738884201D300202C
:10360000C0437047704710B5882000F045FB002884
:1036100001D00021017010BD802904D8002802D0FB
:103620000178002901D00020704701210170083085
:103630007047002803D002460832914201D0002092
:10364000704700210170704770470020704710B527
:10365000FFF71CFC10BD70477047002101717047D7
:1036600010B5C324A4000019FFF710FC001B10BD07
:1036700000210160017141718171C1718160C1607E
:10368000704710B50021C1710721FFF710FE10BD72
:1036900010B50446FFF7F5FF204610BD0020704727
:1036A0000720704718B5C179042903D002290AD030
:1036B000002018BDC278817800786B461A70597066
:1036C0009970D87007E0417803786C462170002229
:1036D0006370A270E270009818BD10B500F001F898
:1036E00010BD10B500F0AEFA10BD10B500F002F834
:1036F00010BD000010B5040008D1012406E0FFF75A
:10370000EBFE0068002800D103488047204600F007
:10371000C3FA0028F3D010BDC33300080FB410B5AE
:1037200004A9074B02AA039800F04CF8044602A92A
:10373000002000F081FA204610BC08BC04B01847F5
:10374000393C000830B47446641E2578641CAB42D2
:1037500000D21D46635D5B00E31830BC18470000D3
:1037600000487047A4000020FFB581B01C461746F2
:103770000E0007D0019D02E02846B047ED19204613
:10378000641EF9D2019805B0F0BD0168002901D08E
:1037900000207047012101600846704710B50020E5
:1037A000C046C04610BD02E008C8121F08C1002A6A
:1037B000FAD170477047002001E001C1121F002AB2
:1037C000FBD17047FFB591B00F460546002606E0D5
:1037D00025280AD0149A139990476D1C761C2878D6
:1037E0000028F5D1304615B0F0BD00240094012129
:1037F000F34A029400E004436D1C2B780846203BFA
:1038000098401042F7D128782A280ED00221287833
:103810000246303A092A15D8009A0A235A43303A08
:1038200080180C436D1C0090F1E701CF0090002838
:1038300005DA012040030443009840420090022032
:1038400004436D1C28782E2815D104200443687881
:103850006D1C2A280AD101CF6D1C02900BE0029941
:103860000A225143303940186D1C029028780146D5
:1038700030390929F3D928786C2810D006DC4C2877
:103880001AD068280ED06A2817D104E0742813D003
:103890007A2812D110E00120400504430CE00121F8
:1038A000090501E0032109050C436978814203D130
:1038B0000120000524186D1C6D1C287803906E28CB
:1038C0001ED00CDC632831D004DC00288AD05828B4
:1038D00011D1B2E064287BD069280CD178E073283C
:1038E0002DD004DC6F2870D0702804D1A7E0752893
:1038F0006CD078286BD0149A13999047761C62E0AC
:103900006002400F022807D003280AD00428386834
:103910000AD006603F1D56E03868F1170660416026
:10392000F8E738680680F5E70670F3E73878694607
:1039300008740020487404A80390012003E038684C
:1039400003900020C0433F1D61070FD5002101E017
:103950000199491C029A0191914213DA8142F7DBE5
:10396000019A0399895C0029F2D10BE0002101E062
:103970000199491C01918142FADB019A0399895C02
:103980000029F5D101990098139A401A0090214618
:10399000149B00F03BF901998019461807E0039841
:1039A00003990078491C0391149A13999047019840
:1039B000401E0190401CF2D12146149B139A00989E
:1039C00000F014F986196D1C09E741E033E034E09A
:1039D0000A200021049005916002410F022905D0C0
:1039E00001CFC2179446032905D007E0FF1DFF0849
:1039F000FF0003CF06E000B2C2179446042902D1AB
:103A000040B2C1178C4600226146944506DA0A4648
:103A10000021404291418C462D2102E0210504D530
:103A20002B216A461176012103E0E10701D0202114
:103A3000F7E7019154E00A200BE0102009E0102084
:103A4000049000210420044308200591029003E023
:103A500008200021059104906002410F022905D041
:103A600001CF00229446032906D006E0FF1DFF087F
:103A7000FF0003CF8C4603E080B2042900D1C0B21E
:103A80000021019121072BD50399702906D0049AB2
:103A90001021059B4A401A4305D00EE040216A469A
:103AA0001176012108E06146014306D030216A46C3
:103AB00011760399517602210191049A0821059B00
:103AC0004A401A430CD16146014301D1610707D531
:103AD00030216A461176012101910299491E029115
:103AE0000399582904D037A103910FA90F910DE034
:103AF00039A1F9E76146059B049AFFF766FC039B31
:103B00008C469B5C0F9A521E0F92137061460143C4
:103B1000F0D10F9807A9081A20300390600704D548
:103B2000012000048443029801E0012002900399DF
:103B3000884201DD401A00E00020411802900198FF
:103B400009180098401A0090E00306D42146149BFF
:103B5000139A009800F05AF886190020049008E0A3
:103B600006A9085C149A139990470498401C761C87
:103B7000049001998842F3DBE0030CD52146149BA5
:103B8000139A009800F042F8861904E0149A302045
:103B900013999047761C0299481E02900029F5DC83
:103BA00008E00F980F990078491C0F91149A139907
:103BB0009047761C0399481E03900029F1DCFBE630
:103BC00009280100303132333435363738396162F3
:103BD00063646566000000003031323334353637B7
:103BE000383941424344454600000000F8B50446D8
:103BF00000251E461746880404D405E039462020D7
:103C0000B0476D1C641EF9D52846F8BDFFB50446C3
:103C1000002581B01E46C80301D5302700E02027CB
:103C2000880404D505E038460399B0476D1C641E2E
:103C3000F9D5284605B0F0BD0A68531C0B6010701A
:103C40007047000010B5002823D0124B0022001F3F
:103C5000196803E0814203D80A4649680029F9D16E
:103C6000002A0AD01368841A9C4204D100681818EC
:103C70001060104602E0506000E01860002907D094
:103C800002680B1A934203D10B68D218026049688C
:103C9000416010BDB8000020F0B50B30C108C9006C
:103CA000144F0026144A0FE003688B420BD38B425B
:103CB00005D95C1A4318456830C3083B00E04368E7
:103CC000136002C004E0021D10680028ECD13046E9
:103CD000002803D13868002801D00020F0BD064A32
:103CE00006481060064A121AD208D20044C00120C9
:103CF0003860D7E7BC000020B8000020C4050020D1
:103D0000C01200203F004F4B00312E393100544586
:103D1000535400454C4D3332392076322E31004316
:103D20006F70797269676874202863292032303097
:103D3000392D32303138204F6264446961672E4E2C
:103D400065740000644500080F00000000000000DA
:103D5000A9080008AC4500080000000000000000B1
:103D6000AF080008B445000827000000000000006C
:103D7000B5080008384600081300000000000000E5
:103D8000C108000868450008250000000000000088
:103D9000C9080008104600080400000000000000E8
:103DA000AF0700085446000828000000000000008B
:103DB000AF0700085845000801000000000000009F
:103DC000AF070008A0450008020000000000000046
:103DD000AF070008B0450008030000000000000025
:103DE000AF070008D84500080500000000000000EB
:103DF000CF08000808460008060000000000000088
:103E0000C5060008DC4500086D0000000202000045
:103E1000F5060008744600086A000000020200006F
:103E2000F506000834450008080000000000000006
:103E3000DD0600087C4500080800000000000000C6
:103E4000C5060008B8450008E803000000000000AF
:103E500021070008B8450008E8030000020200003E
:103E60003F070008584600086700000002020000F3
:103E7000F5060008F0450008E90300000303000010
:103E800099080008F0450008E90300000808000050
:103E900099080008244500080A00000000000000FE
:103EA000DD0600086C4500080A0000000000000064
:103EB000C506000818460008EC03000003030000D4
:103EC0009908000818460008EC03000008080000E4
:103ED0009908000840460008ED03000002020000B7
:103EE0003F070008C0450008650000000000000012
:103EF000B5070008C0450008650000000303000086
:103F0000B5070008C045000865000000080800006B
:103F1000B5070008684600080D000000000000001A
:103F2000B3070008444500080B0000000000000033
:103F3000DD0600088C4500080B00000000000000B2
:103F4000C5060008244600086600000001010000C4
:103F5000AD0A00087C4600080700000004040000C9
:103F6000AF070008E845000820000000000000003E
:103F7000910B00082C45000809000000000000001B
:103F8000DD0600087445000809000000000000007C
:103F9000C5060008444600081100000000000000AB
:103FA000DB08000834460008100000000000000094
:103FB000E70800083045000812000000000000007B
:103FC000DD0600087845000812000000000000002F
:103FD000C5060008E0450008EA030000020A0000E8
:103FE0003F070008FC450008EB0300000303000046
:103FF0003F070008FC450008EB030000080800002C
:104000003F0700081C460008640000000101000092
:104010002F080008EC450008280000000000000000
:10402000AF0700083C450008140000000000000035
:10403000DD060008844500081400000000000000B0
:10404000C50600080C46000815000000000000002E
:10405000F9090008CC450008280000000202000011
:10406000AF0700085C4600082800000001010000BE
:10407000AF070008BC45000868000000020200000D
:10408000F506000884460008170000000000000044
:10409000F30800086045000816000000000000005A
:1040A000DD060008A845000816000000000000001A
:1040B000C506000840450008180000000000000088
:1040C000DD06000848460008190000000000000056
:1040D000AF07000888450008180000000000000035
:1040E000C50600084C4500081A000000000000004A
:1040F000DD060008944500081A00000000000000DA
:10410000C506000814460008040000000000000076
:10411000AF070008D0450008EF03000004040000CA
:104120003F070008D44500081B0000000000000005
:10413000FF0800082C4600082800000000000000CE
:10414000AF070008F4450008280000000000000048
:10415000AF070008C4450008280000000202000064
:10416000AF070008504500081E00000000000000D6
:10417000DD060008984500081E0000000000000051
:10418000C5060008644600080C000000000000009E
:10419000AF070008804600081C0000000000000077
:1041A000110900085445000821000000000000002B
:1041B000DD0600089C45000821000000000000000A
:1041C000C506000804460008EE03000003030000D3
:1041D0003F07000804460008EE0300000606000042
:1041E0003F07000804460008EE030000080800002E
:1041F000FF0900084C4600086900000001020000A9
:104200004B09000860460008280000000202000078
:10421000AF0700086C460008220000000000000004
:10422000AF070008784600086C000000020200009A
:10423000F5060008884600086E0000000202000033
:10424000F5060008C84500086B00000002020000E7
:10425000F506000850460008230000000101000098
:104260004B0900085046000823000000020200002D
:104270004B0900085C4500080E000000000000002B
:10428000DD060008A44500080E0000000000000044
:10429000C506000828460008F0030000020C0000D4
:1042A0003F070008704600082600000000000000DC
:1042B000A10B00088C4600081D0000000000000053
:1042C000A10B000800000048000400480008004856
:1042D000000C0048001000483F004552524F520069
:1042E0004E4F2044415441004441544120455252D4
:1042F0004F5200554E41424C4520544F20434F4EA3
:104300004E454354004642204552524F52004255BA
:1043100053204255535900425553204552524F5253
:104320000044415441204552524F523E0050726F5A
:104330006772616D204572726F72000040404040AC
:104340004040404040414141414140404040404068
:104350004040404040404040404040400502020252
:1043600002020202020202020202020220202020B5
:1043700020202020202002020202020202909090BF
:1043800090909010101010101010101010101010AD
:104390001010101010101002020202020288888809
:1043A000888888080808080808080808080808080D
:1043B0000808080808080802020202403C430008F6
:1043C00000000000000000004B360008031D00083C
:1043D0002D1D0008311D00083B1D00085736000840
:1043E000000000005B360008A92C000849360008D0
:1043F000000000009D36000800000000593600084B
:1044000000000000000000009D3700088125000822
:104410005D2500089D3700089D37000873260008B9
:10442000000000005B360008A92C000815260008D3
:10443000000000009D370008000000005936000809
:10444000000000009D3700089D37000800000000B4
:1044500000000000CF260008812500085D25000827
:10446000D92600080727000873260008000000006E
:1044700069280008A92C0008152600080000000083
:104480005D28000800000000592700080000000017
:1044900035270008B12700080000000000000000D8
:1044A0007B280008812500085D2500088528000874
:1044B0009F28000873260008000000009B290008C0
:1044C000A92C00081526000800000000A1360008ED
:1044D00000000000FD28000800000000B9280008C6
:1044E0005129000800000000000000009D3700086E
:1044F0009D3700089D3700089D3700089D3700084C
:1045000057360008000000005B360008A92C0008A0
:104510009D370008000000009D37000800000000E3
:104520005936000843464330000000004430000084
:104530004530000043414630000000004830000094
:104540004C30000043534D30000000004D3000005F
:10455000523000005330000041543000563000000B
:104560004B573000233100004031000043464331B7
:104570000000000044310000453100004341463155
:1045800000000000483100004C31000043534D3121
:10459000000000004D310000523100005331000096
:1045A00041543100563100004B5731002332000096
:1045B0004154320023330000434541004949410042
:1045C0004352410052410000544100004942000062
:1045D0005042000050430000424400004252440058
:1045E00046435344000000004400000046450000DC
:1045F00043460000505046464F4646004643534807
:10460000000000005348000042490000490000003B
:10461000414C00004E4C0000434D00004643534DBA
:104620000000000043544D00574D000050504646D6
:104630004F4E000044504E002352534E00000000E5
:1046400043500000445000004C5000005350000004
:104650005450000041520000434552004946520068
:104660005352000052545200435300005353000071
:104670005753000042525400535400004356000068
:10468000525600004B570000535700005A000000DC
:10469000B846000800000020C0000000A63700084F
:1046A00078470008C000002000160000B637000858
:1046B000C3BAFFFFFDCEFFFF0000000000000000B6
:1046C00000000000000000000000004800000000A2
:1046D00000000000000000000000000000000000DA
:1046E00000000000000000000000000000000000CA
:1046F00000000000000000000000000000000000BA
:10470000000000000004004000200040004801407C
:104710000000000000000000000000000000000099
:104720000000000001020304010203040607080957
:104730000000000000000000000000000000000079
:104740000000000000000000006CDC02000000001F
:104750000000000001020304060708090000000031
:104760000000000000000000000000000000000049
:08477000000000000000000041
:04000005080000C12E
:00000001FF
